S01500004C696272617279456469746F722E73726563D3
S1130000B8080020190100001501000015010000C6
S113001000000000000000000000000000000000DC
S113002000000000000000000000000015010000B6
S11300300000000000000000150100001501000090
S11300401501000015010000150100001501000054
S11300501501000015010000150100001501000044
S11300601501000015010000150100001501000034
S11300701501000015010000150100001501000024
S11300801501000015010000FD010000150100002C
S11300901501000015010000150100001501000004
S11300A015010000150100001501000015010000F4
S11300B00000000010B5064C2378002B07D1054B37
S11300C0002B02D0044800E000BF0123237010BDC0
S11300D02804002000000000380B0000084B10B575
S11300E0002B03D00749084800E000BF0748036815
S11300F0002B00D110BD064B002BFBD09847F9E72D
S1130100000000002C040020380B0000380B000015
S113011000000000FEE70000F8B52A4A2A4B9A4284
S113012011D01A00294B9A420DD2294A03339B1A43
S11301309B0801339B000022234822498C58845099
S113014004329A42FAD1234A234B9A420AD2D34325
S113015021495B1803218B4304339B18002102C2FD
S11301609342FCD11D4AFF211D4B8B439360FD3903
S113017090235B001B4AD1501B4AD3780325AB4321
S113018002242343D370D3780C27BB43082633437C
S1130190D370164B987B30229043202210439873DF
S11301A0997BB943314399739A7BAA4322439A7347
S11301B00F4A536880210B4353600E4B98470E4BF4
S11301C09847FEE7380B00000000002028040020B8
S11301D00400002028040020B804002000ED00E002
S11301E00000000000700041005000410048004140
S11301F000400041710800003D0200000C4B1B88C8
S11302009BB2122B0AD80A4A138801339BB213807B
S1130210084A937B10210B4393737047064A138853
S113022001339BB213800022014B1A80F0E7C046D1
S1130230B4040020002C0042B604002010B5014B89
S11302409847FEE7F505000070B582B00C00150074
S1130250214A116A80235B020B4313621F4B5A88A5
S11302600F21014009021E48104008435880598854
S11302703F2291431E221143598059888022D20182
S11302800A435A8000230193013300930122012180
S11302901448154EB047154B1A6915491140C02230
S11302A052010A431A611F211A690D408A432A43E5
S11302B01A615A7818398A43022002435A7099887D
S11302C00122224092000424A143114399801A7808
S11302D002431A7002B070BD00040040000C0040DC
S11302E0FFF0FFFF80440041610300000040004232
S11302F0FFE0FFFF024A137B02210B431373704795
S113030000400042024B187EC007C00F7047C04631
S113031000400042024A137E01210B4313767047CA
S113032000400042014B588B80B2704700400042AD
S1130330012A05D003684A425141194001607047BF
S1130340036819430160FAE7002A03D003691943DB
S11303500161704703694A42514119400161F8E75C
S113036070B5050016001C0008001E4B9847C30713
S11303702AD5C30F1B185B100F221640EB1830331D
S1130380197836010A4016431E702D1840352B7813
S1130390012213432B7001222B78144064000221A4
S11303A08B4323432B702B780599114089014024FA
S11303B0A3430B432B702B7804990A409200042129
S11303C08B431A432A7070BDC30F1B185B10EB18C4
S11303D030331A780F2131400F26B24316000E43F2
S11303E01E70D2E7BD060000006A4B425941084026
S11303F0414248417047000010B5054B9847054CF1
S1130400A0470028FCD0044B9847044B984710BDE4
S1130410F502000005030000150300002503000099
S113042010B5002808D1002280210848084B9847BD
S11304300022084B5A7010BD012280210348044B4E
S113044098470122034B5A70F5E7C04680440041A7
S113045049030000B004002010B5064B012200211E
S11304600320054CA047054A11688023DB020B4397
S1130470136010BD50C30000D906000000E100E085
S113048010B5064C00212000054B98472000054B71
S113049098470022044B1A8010BDC046002C00422D
S11304A0DD070000F1070000B604002070B5050068
S11304B001203F4B98470122802109013D483E4BD2
S11304C09847002D4BD10020394B984701213B48D8
S11304D03B4B98470122802149013648364B9847C7
S11304E0384A13889BB2592BFBD9374B98470120C4
S11304F02F4B98470122802189012E482E4B984783
S1130500002D45D1314E324CB047A042FCD90121D7
S11305102A482B4B98470020254B9847294A138893
S11305209BB21D2BFBD9284B98470020204B9847A2
S113053001228021C9011F481F4B9847002D2CD14F
S1130540224EBB246400B047A042FCD8002D29D120
S11305500122802109021748174B984770BD1D4E90
S11305601D4930001D4CA0471D493000A047002004
S11305700F4B984701211148114B984701228021C4
S113058049010C480C4B984716493000A047A7E78F
S113059015491048114B9847B4E714490D480F4BBF
S11305A09847CDE712490B480C4B9847D0E7C04613
S11305B0210400008044004149030000002C004253
S11305C0DD070000B604002081040000F9030000E8
S11305D0350C000000140042200A000055080000F9
S11305E0440A0000540A0000640A0000740A00006F
S11305F0AC0A000070B5234D002210212800224CC3
S1130600A047002220212800A047204D00236B6032
S1130610012280211E48A0476B68002B22D10822AA
S1130620002100201B4B98471B4B98471B4B002273
S11306301A705A80154B5B68002B18D1F8252D02CF
S1130640134C0122290020000F4B98470022290057
S11306502000134B984720210A48124B9847002842
S11306600AD170BD10491148114B9847D7E7114979
S11306700E480F4B9847E1E7044B58680E4B9847D8
S1130680EFE7C04600440041310300004404002069
S1130690804400414902000059040000B0040020D5
S11306A049030000E9030000C00A000000140042EE
S11306B055080000D40A0000AD0400000300002027
S11306C0012B07D95B100120012B03D05B100130F3
S11306D02028F9D17047000070B5033804282DD8BC
S11306E08000354C20588746344C256A8020000110
S11306F028432062324C60883F25A8431B252843A9
S11307006080304E2E4844880F250D402D022E491E
S113071021402943418044888021C90121434180EB
S11307203188032010404001602291430A000243B3
S113073032803383737B10221343737370BD1F4C59
S1130740256A80204001284320621D4C60883F2593
S1130750A8431C25284360801C4ED3E7174C256A08
S11307608020800128432062154C60883F25A843DF
S11307701C2528436080164EC4E7104C256A80204F
S1130780C001284320620E4C60883F25A8431D25E4
S1130790284360800F4EB5E7084C256A802000028C
S11307A028432062064C60883F25A8431D25284322
S11307B06080094EA6E7C046FC0A00000004004021
S11307C0000C0040002C0042FFF0FFFF003000420C
S11307D00034004200380042003C004203880122F9
S11307E00A40520002218B431900114301807047D3
S11307F00023038270470D2904D0022300291BD152
S113080018007047037EDB07FCD5038DFF2293435A
S11308100D2213430385037E9B07FCD5037EDB0770
S1130820FCD5038DFF2293430A2213430385037EE1
S11308309B07FCD50123E3E7037EDB07FCD5038D8F
S1130840FF22934319430185037E9B07FCD50323B1
S1130850D6E7000070B505000C00044E217828008E
S1130860B04701340228F9D170BDC046F707000033
S113087070B50D4E0D4D0024AD1BAD1005D0A30079
S1130880F35801349847A542F9D100F043F9084ED2
S1130890084D0024AD1BAD1005D0A300F35801345E
S11308A09847A542F9D170BD200B0000200B000031
S11308B0200B0000280B0000034B10B5002B02D0C6
S11308C0024800F005F810BD00000000E108000037
S11308D010B5010000230022002000F01BF810BD19
S11308E070B5094B094CE41AA41009D0084AA5189C
S11308F0AD00ED182B68013C9847043D002CF9D15C
S113090000F012F970BDC046340B0000380B000033
S1130910FFFFFF3FF8B5DE469B46314B45461C685A
S1130920A4234E4657465B00E0B50500E0580E0090
S1130930904600284BD043681F2B0DDC5C1C002D17
S113094021D102339B0044601E5000203CBC9046E1
S11309509946A246AB46F8BD224B002B3CD0C8209A
S1130960400000E000BF002836D0A422002352003B
S1130970A15843600160A050403283500432835038
S11309800124002DDDD09A009146814442468821FD
S11309904F467A50C42252009046804442468739DA
S11309A0994012688A460A43944642466146116059
S11309B0842249465F4652008F50022DC1D1020065
S11309C055468D32FF3211680D431560B9E720009A
S11309D04D30FF30E050AEE701204042B6E7C0465C
S11309E0100B0000000000005468652074656D70F1
S11309F0657261747572652069733A2074656D70EF
S1130A00430D0A0052656C6179206973204F6E00B2
S1130A1052656C6179206973204F6666000000009E
S1130A205374617274696E67207265666C6F7720A7
S1130A306F76656E2070726F66696C652E2E2E0D52
S1130A400A0D0A005A4F4E452031205374617274C6
S1130A502E0D0A005A4F4E45203220537461727491
S1130A602E0D0A005A4F4E45203320537461727480
S1130A702E0D0A005A4F4E4520342053746172746F
S1130A802C206F70656E206F76656E20646F6F72B8
S1130A9020746F2072617069646C7920636F6F6C6D
S1130AA0206F76656E210D0A0000000050726F669B
S1130AB0696C6520636F6D706C657465210D0A0047
S1130AC0496E697469616C697A696E67204144434F
S1130AD02E0D0A00496E697469616C697A617469E2
S1130AE06F6E2070726F6365737320636F6D706CCB
S1130AF0657465210D0A0D0A00000000E806000077
S1130B003E0700005C0700007A0700009807000019
S1130B1000000020F8B5C046F8BC08BC9E467047EB
S1130B20B9080000DD000000F8B5C046F8BC08BCF8
S10B0B309E467047B500000069
S1130B3800000000EC02002054030020BC03002045
S1130B480000000000000000000000000000000099
S1130B580000000000000000000000000000000089
S1130B680000000000000000000000000000000079
S1130B780000000000000000000000000000000069
S1130B880000000000000000000000000000000059
S1130B980000000000000000000000000000000049
S1130BA80000000000000000000000000000000039
S1130BB80000000000000000000000000000000029
S1130BC80000000000000000000000000000000019
S1130BD80000000000000000010000000000000008
S1130BE80E33CDAB34126DE6ECDE05000B000000CD
S1130BF800000000000000000000000000000000E9
S1130C0800000000000000000000000000000000D8
S1130C1800000000000000000000000000000000C8
S1130C2800000000000000000000000000000000B8
S9030000FC
