S01500004C696272617279456469746F722E73726563D3
S1130000500800201901000015010000150100002E
S113001000000000000000000000000000000000DC
S113002000000000000000000000000015010000B6
S11300300000000000000000150100001501000090
S11300401501000015010000150100001501000054
S11300501501000015010000150100001501000044
S11300601501000015010000150100001501000034
S11300701501000015010000150100001501000024
S113008015010000150100002D02000015010000FB
S11300901501000015010000150100001501000004
S11300A015010000150100001501000015010000F4
S11300B00000000010B5064C2378002B07D1054B37
S11300C0002B02D0044800E000BF0123237010BDC0
S11300D02804002000000000B4050000084B10B5FF
S11300E0002B03D00749084800E000BF0748036815
S11300F0002B00D110BD064B002BFBD09847F9E72D
S1130100000000002C040020B4050000B405000029
S113011000000000FEE70000F8B52A4A2A4B9A4284
S113012011D01A00294B9A420DD2294A03339B1A43
S11301309B0801339B000022234822498C58845099
S113014004329A42FAD1234A234B9A420AD2D34325
S113015021495B1803218B4304339B18002102C2FD
S11301609342FCD11D4AFF211D4B8B439360FD3903
S113017090235B001B4AD1501B4AD3780325AB4321
S113018002242343D370D3780C27BB43082633437C
S1130190D370164B987B30229043202210439873DF
S11301A0997BB943314399739A7BAA4322439A7347
S11301B00F4A536880210B4353600E4B98470E4BF4
S11301C09847FEE7B4050000000000202804002042
S11301D004000020280400204C04002000ED00E06E
S11301E00000000000700041005000410048004140
S11301F0004000410104000039020000094B1B6863
S1130200122B08DC0133074A1360074A937B102141
S11302100B4393737047034B00221A605A680132F0
S11302205A60F2E744040020002C004210B5014B50
S1130230984710BDFD010000F0B5C64600B582B078
S1130240214B1A688024E40222431A601A6922436B
S11302501A611E4B0122002103201D4DA8471D4B8E
S11302601A6814431C6001211B481C4B9847002347
S1130270019301221A4914488023DB029C460F0093
S113028000250C000E0088460FE00369154A134050
S1130290036143465D602A0004E06368042B01DDCA
S11302A0002A0AD0019B013301934B68042BF4DD2F
S11302B0012AEAD07368042BF4DD03696246134310
S11302C003617D600122EDE70044004150C300005A
S11302D0E902000000E100E0002C0042ED03000010
S11302E044040020FFFFFBFF70B5033804282DD819
S11302F08000354C20588746344C256A8020000104
S113030028432062324C60883F25A8431B2528439C
S11303106080304E2E4844880F250D402D022E4912
S113032021402943418044888021C90121434180DF
S11303303188032010404001602291430A000243A7
S113034032803383737B10221343737370BD1F4C4D
S1130350256A80204001284320621D4C60883F2587
S1130360A8431C25284360801C4ED3E7174C256AFC
S11303708020800128432062154C60883F25A843D3
S11303801C2528436080164EC4E7104C256A802043
S1130390C001284320620E4C60883F25A8431D25D8
S11303A0284360800F4EB5E7084C256A8020000280
S11303B028432062064C60883F25A8431D25284316
S11303C06080094EA6E7C04678050000000400409E
S11303D0000C0040002C0042FFF0FFFF0030004200
S11303E00034004200380042003C004203880122ED
S11303F00A40520002218B431900114301807047C7
S113040070B50D4E0D4D0024AD1BAD1005D0A300ED
S1130410F35801349847A542F9D100F0B9F8084ED1
S1130420084D0024AD1BAD1005D0A300F3580134D2
S11304309847A542F9D170BD9C0500009C050000B9
S11304409C050000A4050000034B10B5002B02D04E
S1130450024800F005F810BD00000000710400001F
S113046010B5010000230022002000F01BF810BD8D
S113047070B5094B094CE41AA41009D0084AA51810
S1130480AD00ED182B68013C9847043D002CF9D1D0
S113049000F088F870BDC046B0050000B405000047
S11304A0FFFFFF3FF8B5DE469B46314B45461C68CF
S11304B0A4234E4657465B00E0B50500E0580E0005
S11304C0904600284BD043681F2B0DDC5C1C002D8C
S11304D021D102339B0044601E5000203CBC904656
S11304E09946A246AB46F8BD224B002B3CD0C8200F
S11304F0400000E000BF002836D0A42200235200B0
S1130500A15843600160A0504032835004328350AC
S11305100124002DDDD09A00914681444246882171
S11305204F467A50C422520090468044424687394E
S1130530994012688A460A439446424661461160CD
S1130540842249465F4652008F50022DC1D10200D9
S113055055468D32FF3211680D431560B9E720000E
S11305604D30FF30E050AEE701204042B6E7C046D0
S11305708C05000000000000F80200004E0300009B
S11305806C0300008A030000A803000000000020A0
S1130590F8B5C046F8BC08BC9E4670474904000044
S11305A0DD000000F8B5C046F8BC08BC9E467047A4
S10705B0B50000008E
S11305B400000000EC02002054030020BC030020CF
S11305C40000000000000000000000000000000023
S11305D40000000000000000000000000000000013
S11305E40000000000000000000000000000000003
S11305F400000000000000000000000000000000F3
S113060400000000000000000000000000000000E2
S113061400000000000000000000000000000000D2
S113062400000000000000000000000000000000C2
S113063400000000000000000000000000000000B2
S113064400000000000000000000000000000000A2
S11306540000000000000000010000000000000091
S11306640E33CDAB34126DE6ECDE05000B00000056
S11306740000000000000000000000000000000072
S11306840000000000000000000000000000000062
S11306940000000000000000000000000000000052
S11306A40000000000000000000000000000000042
S9030000FC
